{
  "contractName": "Voting",
  "abi": [
    {
      "inputs": [
        {
          "internalType": "string[]",
          "name": "candidateNames",
          "type": "string[]"
        }
      ],
      "stateMutability": "nonpayable",
      "type": "constructor"
    },
    {
      "inputs": [
        {
          "internalType": "uint256",
          "name": "",
          "type": "uint256"
        }
      ],
      "name": "candidates",
      "outputs": [
        {
          "internalType": "string",
          "name": "name",
          "type": "string"
        },
        {
          "internalType": "uint256",
          "name": "voteCount",
          "type": "uint256"
        },
        {
          "internalType": "bool",
          "name": "isActive",
          "type": "bool"
        }
      ],
      "stateMutability": "view",
      "type": "function",
      "constant": true
    },
    {
      "inputs": [],
      "name": "electionEnded",
      "outputs": [
        {
          "internalType": "bool",
          "name": "",
          "type": "bool"
        }
      ],
      "stateMutability": "view",
      "type": "function",
      "constant": true
    },
    {
      "inputs": [
        {
          "internalType": "address",
          "name": "",
          "type": "address"
        }
      ],
      "name": "eligibleVoters",
      "outputs": [
        {
          "internalType": "bool",
          "name": "",
          "type": "bool"
        }
      ],
      "stateMutability": "view",
      "type": "function",
      "constant": true
    },
    {
      "inputs": [
        {
          "internalType": "address",
          "name": "",
          "type": "address"
        }
      ],
      "name": "hasVoted",
      "outputs": [
        {
          "internalType": "bool",
          "name": "",
          "type": "bool"
        }
      ],
      "stateMutability": "view",
      "type": "function",
      "constant": true
    },
    {
      "inputs": [],
      "name": "owner",
      "outputs": [
        {
          "internalType": "address",
          "name": "",
          "type": "address"
        }
      ],
      "stateMutability": "view",
      "type": "function",
      "constant": true
    },
    {
      "inputs": [
        {
          "internalType": "address",
          "name": "",
          "type": "address"
        }
      ],
      "name": "votes",
      "outputs": [
        {
          "internalType": "uint256",
          "name": "",
          "type": "uint256"
        }
      ],
      "stateMutability": "view",
      "type": "function",
      "constant": true
    },
    {
      "inputs": [
        {
          "internalType": "string",
          "name": "candidateName",
          "type": "string"
        }
      ],
      "name": "addCandidate",
      "outputs": [],
      "stateMutability": "nonpayable",
      "type": "function"
    },
    {
      "inputs": [
        {
          "internalType": "uint256",
          "name": "candidateIndex",
          "type": "uint256"
        }
      ],
      "name": "removeCandidate",
      "outputs": [],
      "stateMutability": "nonpayable",
      "type": "function"
    },
    {
      "inputs": [
        {
          "internalType": "uint256",
          "name": "candidateIndex",
          "type": "uint256"
        }
      ],
      "name": "reactivateCandidate",
      "outputs": [],
      "stateMutability": "nonpayable",
      "type": "function"
    },
    {
      "inputs": [
        {
          "internalType": "address",
          "name": "voter",
          "type": "address"
        }
      ],
      "name": "addEligibleVoter",
      "outputs": [],
      "stateMutability": "nonpayable",
      "type": "function"
    },
    {
      "inputs": [
        {
          "internalType": "address",
          "name": "voter",
          "type": "address"
        }
      ],
      "name": "removeEligibleVoter",
      "outputs": [],
      "stateMutability": "nonpayable",
      "type": "function"
    },
    {
      "inputs": [],
      "name": "endElection",
      "outputs": [],
      "stateMutability": "nonpayable",
      "type": "function"
    },
    {
      "inputs": [],
      "name": "startElection",
      "outputs": [],
      "stateMutability": "nonpayable",
      "type": "function"
    },
    {
      "inputs": [
        {
          "internalType": "uint256",
          "name": "candidateIndex",
          "type": "uint256"
        }
      ],
      "name": "vote",
      "outputs": [],
      "stateMutability": "nonpayable",
      "type": "function"
    },
    {
      "inputs": [],
      "name": "getResults",
      "outputs": [
        {
          "components": [
            {
              "internalType": "string",
              "name": "name",
              "type": "string"
            },
            {
              "internalType": "uint256",
              "name": "voteCount",
              "type": "uint256"
            },
            {
              "internalType": "bool",
              "name": "isActive",
              "type": "bool"
            }
          ],
          "internalType": "struct Voting.Candidate[]",
          "name": "",
          "type": "tuple[]"
        }
      ],
      "stateMutability": "view",
      "type": "function",
      "constant": true
    },
    {
      "inputs": [
        {
          "internalType": "address",
          "name": "voter",
          "type": "address"
        }
      ],
      "name": "hasVotedStatus",
      "outputs": [
        {
          "internalType": "bool",
          "name": "",
          "type": "bool"
        }
      ],
      "stateMutability": "view",
      "type": "function",
      "constant": true
    },
    {
      "inputs": [
        {
          "internalType": "address",
          "name": "voter",
          "type": "address"
        }
      ],
      "name": "getVoterChoice",
      "outputs": [
        {
          "internalType": "uint256",
          "name": "",
          "type": "uint256"
        }
      ],
      "stateMutability": "view",
      "type": "function",
      "constant": true
    }
  ],
  "bytecode": "0x60806040523480156200001157600080fd5b5060405162002707380380620027078339818101604052810190620000379190620003f7565b336000806101000a81548173ffffffffffffffffffffffffffffffffffffffff021916908373ffffffffffffffffffffffffffffffffffffffff1602179055506000600560006101000a81548160ff02191690831515021790555060005b8151811015620001605760046040518060600160405280848481518110620000c257620000c162000448565b5b602002602001015181526020016000815260200160011515815250908060018154018082558091505060019003906000526020600020906003020160009091909190915060008201518160000190816200011d9190620006c2565b506020820151816001015560408201518160020160006101000a81548160ff021916908315150217905550505080806200015790620007d8565b91505062000095565b505062000825565b6000604051905090565b600080fd5b600080fd5b600080fd5b6000601f19601f8301169050919050565b7f4e487b7100000000000000000000000000000000000000000000000000000000600052604160045260246000fd5b620001cc8262000181565b810181811067ffffffffffffffff82111715620001ee57620001ed62000192565b5b80604052505050565b60006200020362000168565b9050620002118282620001c1565b919050565b600067ffffffffffffffff82111562000234576200023362000192565b5b602082029050602081019050919050565b600080fd5b600080fd5b600067ffffffffffffffff8211156200026d576200026c62000192565b5b620002788262000181565b9050602081019050919050565b60005b83811015620002a557808201518184015260208101905062000288565b60008484015250505050565b6000620002c8620002c2846200024f565b620001f7565b905082815260208101848484011115620002e757620002e66200024a565b5b620002f484828562000285565b509392505050565b600082601f8301126200031457620003136200017c565b5b815162000326848260208601620002b1565b91505092915050565b600062000346620003408462000216565b620001f7565b905080838252602082019050602084028301858111156200036c576200036b62000245565b5b835b81811015620003ba57805167ffffffffffffffff8111156200039557620003946200017c565b5b808601620003a48982620002fc565b855260208501945050506020810190506200036e565b5050509392505050565b600082601f830112620003dc57620003db6200017c565b5b8151620003ee8482602086016200032f565b91505092915050565b60006020828403121562000410576200040f62000172565b5b600082015167ffffffffffffffff81111562000431576200043062000177565b5b6200043f84828501620003c4565b91505092915050565b7f4e487b7100000000000000000000000000000000000000000000000000000000600052603260045260246000fd5b600081519050919050565b7f4e487b7100000000000000000000000000000000000000000000000000000000600052602260045260246000fd5b60006002820490506001821680620004ca57607f821691505b602082108103620004e057620004df62000482565b5b50919050565b60008190508160005260206000209050919050565b60006020601f8301049050919050565b600082821b905092915050565b6000600883026200054a7fffffffffffffffffffffffffffffffffffffffffffffffffffffffffffffffff826200050b565b6200055686836200050b565b95508019841693508086168417925050509392505050565b6000819050919050565b6000819050919050565b6000620005a36200059d62000597846200056e565b62000578565b6200056e565b9050919050565b6000819050919050565b620005bf8362000582565b620005d7620005ce82620005aa565b84845462000518565b825550505050565b600090565b620005ee620005df565b620005fb818484620005b4565b505050565b5b81811015620006235762000617600082620005e4565b60018101905062000601565b5050565b601f82111562000672576200063c81620004e6565b6200064784620004fb565b8101602085101562000657578190505b6200066f6200066685620004fb565b83018262000600565b50505b505050565b600082821c905092915050565b6000620006976000198460080262000677565b1980831691505092915050565b6000620006b2838362000684565b9150826002028217905092915050565b620006cd8262000477565b67ffffffffffffffff811115620006e957620006e862000192565b5b620006f58254620004b1565b6200070282828562000627565b600060209050601f8311600181146200073a576000841562000725578287015190505b620007318582620006a4565b865550620007a1565b601f1984166200074a86620004e6565b60005b8281101562000774578489015182556001820191506020850194506020810190506200074d565b8683101562000794578489015162000790601f89168262000684565b8355505b6001600288020188555050505b505050505050565b7f4e487b7100000000000000000000000000000000000000000000000000000000600052601160045260246000fd5b6000620007e5826200056e565b91507fffffffffffffffffffffffffffffffffffffffffffffffffffffffffffffffff82036200081a5762000819620007a9565b5b600182019050919050565b611ed280620008356000396000f3fe608060405234801561001057600080fd5b506004361061010b5760003560e01c80638847103b116100a2578063c94ca9e311610071578063c94ca9e314610292578063d8bff5a5146102b0578063dc4d2dbc146102e0578063dec79c8a146102fc578063e8efd480146103185761010b565b80638847103b146101f85780638da5cb5b1461022857806393eaa6e814610246578063a5cab332146102765761010b565b8063462e91ec116100de578063462e91ec146101aa5780634717f97c146101c657806359f78468146101e457806362d73eb8146101ee5761010b565b80630121b93f1461011057806309e9d7e21461012c57806309eef43e146101485780633477ee2e14610178575b600080fd5b61012a60048036038101906101259190611210565b610348565b005b61014660048036038101906101419190611210565b610645565b005b610162600480360381019061015d919061129b565b6107cd565b60405161016f91906112e3565b60405180910390f35b610192600480360381019061018d9190611210565b6107ed565b6040516101a19392919061139d565b60405180910390f35b6101c460048036038101906101bf9190611510565b6108bc565b005b6101ce6109d9565b6040516101db91906116d3565b60405180910390f35b6101ec610aef565b005b6101f6610b9a565b005b610212600480360381019061020d919061129b565b610c45565b60405161021f91906116f5565b60405180910390f35b610230610da6565b60405161023d919061171f565b60405180910390f35b610260600480360381019061025b919061129b565b610dca565b60405161026d91906112e3565b60405180910390f35b610290600480360381019061028b9190611210565b610e20565b005b61029a610fa9565b6040516102a791906112e3565b60405180910390f35b6102ca60048036038101906102c5919061129b565b610fbc565b6040516102d791906116f5565b60405180910390f35b6102fa60048036038101906102f5919061129b565b610fd4565b005b6103166004803603810190610311919061129b565b6110bd565b005b610332600480360381019061032d919061129b565b6111a6565b60405161033f91906112e3565b60405180910390f35b600560009054906101000a900460ff1615610398576040517f08c379a000000000000000000000000000000000000000000000000000000000815260040161038f90611786565b60405180910390fd5b600160003373ffffffffffffffffffffffffffffffffffffffff1673ffffffffffffffffffffffffffffffffffffffff16815260200190815260200160002060009054906101000a900460ff1615610425576040517f08c379a000000000000000000000000000000000000000000000000000000000815260040161041c906117f2565b60405180910390fd5b600260003373ffffffffffffffffffffffffffffffffffffffff1673ffffffffffffffffffffffffffffffffffffffff16815260200190815260200160002060009054906101000a900460ff166104b1576040517f08c379a00000000000000000000000000000000000000000000000000000000081526004016104a89061185e565b60405180910390fd5b60048054905081106104f8576040517f08c379a00000000000000000000000000000000000000000000000000000000081526004016104ef906118ca565b60405180910390fd5b6004818154811061050c5761050b6118ea565b5b906000526020600020906003020160020160009054906101000a900460ff1661056a576040517f08c379a000000000000000000000000000000000000000000000000000000000815260040161056190611965565b60405180910390fd5b60018060003373ffffffffffffffffffffffffffffffffffffffff1673ffffffffffffffffffffffffffffffffffffffff16815260200190815260200160002060006101000a81548160ff0219169083151502179055506001600482815481106105d7576105d66118ea565b5b906000526020600020906003020160010160008282546105f791906119b4565b9250508190555080600360003373ffffffffffffffffffffffffffffffffffffffff1673ffffffffffffffffffffffffffffffffffffffff1681526020019081526020016000208190555050565b60008054906101000a900473ffffffffffffffffffffffffffffffffffffffff1673ffffffffffffffffffffffffffffffffffffffff163373ffffffffffffffffffffffffffffffffffffffff16146106d3576040517f08c379a00000000000000000000000000000000000000000000000000000000081526004016106ca90611a5a565b60405180910390fd5b600480549050811061071a576040517f08c379a0000000000000000000000000000000000000000000000000000000008152600401610711906118ca565b60405180910390fd5b6004818154811061072e5761072d6118ea565b5b906000526020600020906003020160020160009054906101000a900460ff1661078c576040517f08c379a000000000000000000000000000000000000000000000000000000000815260040161078390611ac6565b60405180910390fd5b6000600482815481106107a2576107a16118ea565b5b906000526020600020906003020160020160006101000a81548160ff02191690831515021790555050565b60016020528060005260406000206000915054906101000a900460ff1681565b600481815481106107fd57600080fd5b906000526020600020906003020160009150905080600001805461082090611b15565b80601f016020809104026020016040519081016040528092919081815260200182805461084c90611b15565b80156108995780601f1061086e57610100808354040283529160200191610899565b820191906000526020600020905b81548152906001019060200180831161087c57829003601f168201915b5050505050908060010154908060020160009054906101000a900460ff16905083565b60008054906101000a900473ffffffffffffffffffffffffffffffffffffffff1673ffffffffffffffffffffffffffffffffffffffff163373ffffffffffffffffffffffffffffffffffffffff161461094a576040517f08c379a000000000000000000000000000000000000000000000000000000000815260040161094190611a5a565b60405180910390fd5b600460405180606001604052808381526020016000815260200160011515815250908060018154018082558091505060019003906000526020600020906003020160009091909190915060008201518160000190816109a99190611cf2565b506020820151816001015560408201518160020160006101000a81548160ff021916908315150217905550505050565b60606004805480602002602001604051908101604052809291908181526020016000905b82821015610ae65783829060005260206000209060030201604051806060016040529081600082018054610a3090611b15565b80601f0160208091040260200160405190810160405280929190818152602001828054610a5c90611b15565b8015610aa95780601f10610a7e57610100808354040283529160200191610aa9565b820191906000526020600020905b815481529060010190602001808311610a8c57829003601f168201915b50505050508152602001600182015481526020016002820160009054906101000a900460ff161515151581525050815260200190600101906109fd565b50505050905090565b60008054906101000a900473ffffffffffffffffffffffffffffffffffffffff1673ffffffffffffffffffffffffffffffffffffffff163373ffffffffffffffffffffffffffffffffffffffff1614610b7d576040517f08c379a0000000000000000000000000000000000000000000000000000000008152600401610b7490611a5a565b60405180910390fd5b6001600560006101000a81548160ff021916908315150217905550565b60008054906101000a900473ffffffffffffffffffffffffffffffffffffffff1673ffffffffffffffffffffffffffffffffffffffff163373ffffffffffffffffffffffffffffffffffffffff1614610c28576040517f08c379a0000000000000000000000000000000000000000000000000000000008152600401610c1f90611a5a565b60405180910390fd5b6000600560006101000a81548160ff021916908315150217905550565b6000600260008373ffffffffffffffffffffffffffffffffffffffff1673ffffffffffffffffffffffffffffffffffffffff16815260200190815260200160002060009054906101000a900460ff16610cd3576040517f08c379a0000000000000000000000000000000000000000000000000000000008152600401610cca9061185e565b60405180910390fd5b600160008373ffffffffffffffffffffffffffffffffffffffff1673ffffffffffffffffffffffffffffffffffffffff16815260200190815260200160002060009054906101000a900460ff16610d5f576040517f08c379a0000000000000000000000000000000000000000000000000000000008152600401610d5690611e10565b60405180910390fd5b600360008373ffffffffffffffffffffffffffffffffffffffff1673ffffffffffffffffffffffffffffffffffffffff168152602001908152602001600020549050919050565b60008054906101000a900473ffffffffffffffffffffffffffffffffffffffff1681565b6000600160008373ffffffffffffffffffffffffffffffffffffffff1673ffffffffffffffffffffffffffffffffffffffff16815260200190815260200160002060009054906101000a900460ff169050919050565b60008054906101000a900473ffffffffffffffffffffffffffffffffffffffff1673ffffffffffffffffffffffffffffffffffffffff163373ffffffffffffffffffffffffffffffffffffffff1614610eae576040517f08c379a0000000000000000000000000000000000000000000000000000000008152600401610ea590611a5a565b60405180910390fd5b6004805490508110610ef5576040517f08c379a0000000000000000000000000000000000000000000000000000000008152600401610eec906118ca565b60405180910390fd5b60048181548110610f0957610f086118ea565b5b906000526020600020906003020160020160009054906101000a900460ff1615610f68576040517f08c379a0000000000000000000000000000000000000000000000000000000008152600401610f5f90611e7c565b60405180910390fd5b600160048281548110610f7e57610f7d6118ea565b5b906000526020600020906003020160020160006101000a81548160ff02191690831515021790555050565b600560009054906101000a900460ff1681565b60036020528060005260406000206000915090505481565b60008054906101000a900473ffffffffffffffffffffffffffffffffffffffff1673ffffffffffffffffffffffffffffffffffffffff163373ffffffffffffffffffffffffffffffffffffffff1614611062576040517f08c379a000000000000000000000000000000000000000000000000000000000815260040161105990611a5a565b60405180910390fd5b6001600260008373ffffffffffffffffffffffffffffffffffffffff1673ffffffffffffffffffffffffffffffffffffffff16815260200190815260200160002060006101000a81548160ff02191690831515021790555050565b60008054906101000a900473ffffffffffffffffffffffffffffffffffffffff1673ffffffffffffffffffffffffffffffffffffffff163373ffffffffffffffffffffffffffffffffffffffff161461114b576040517f08c379a000000000000000000000000000000000000000000000000000000000815260040161114290611a5a565b60405180910390fd5b6000600260008373ffffffffffffffffffffffffffffffffffffffff1673ffffffffffffffffffffffffffffffffffffffff16815260200190815260200160002060006101000a81548160ff02191690831515021790555050565b60026020528060005260406000206000915054906101000a900460ff1681565b6000604051905090565b600080fd5b600080fd5b6000819050919050565b6111ed816111da565b81146111f857600080fd5b50565b60008135905061120a816111e4565b92915050565b600060208284031215611226576112256111d0565b5b6000611234848285016111fb565b91505092915050565b600073ffffffffffffffffffffffffffffffffffffffff82169050919050565b60006112688261123d565b9050919050565b6112788161125d565b811461128357600080fd5b50565b6000813590506112958161126f565b92915050565b6000602082840312156112b1576112b06111d0565b5b60006112bf84828501611286565b91505092915050565b60008115159050919050565b6112dd816112c8565b82525050565b60006020820190506112f860008301846112d4565b92915050565b600081519050919050565b600082825260208201905092915050565b60005b8381101561133857808201518184015260208101905061131d565b60008484015250505050565b6000601f19601f8301169050919050565b6000611360826112fe565b61136a8185611309565b935061137a81856020860161131a565b61138381611344565b840191505092915050565b611397816111da565b82525050565b600060608201905081810360008301526113b78186611355565b90506113c6602083018561138e565b6113d360408301846112d4565b949350505050565b600080fd5b600080fd5b7f4e487b7100000000000000000000000000000000000000000000000000000000600052604160045260246000fd5b61141d82611344565b810181811067ffffffffffffffff8211171561143c5761143b6113e5565b5b80604052505050565b600061144f6111c6565b905061145b8282611414565b919050565b600067ffffffffffffffff82111561147b5761147a6113e5565b5b61148482611344565b9050602081019050919050565b82818337600083830152505050565b60006114b36114ae84611460565b611445565b9050828152602081018484840111156114cf576114ce6113e0565b5b6114da848285611491565b509392505050565b600082601f8301126114f7576114f66113db565b5b81356115078482602086016114a0565b91505092915050565b600060208284031215611526576115256111d0565b5b600082013567ffffffffffffffff811115611544576115436111d5565b5b611550848285016114e2565b91505092915050565b600081519050919050565b600082825260208201905092915050565b6000819050602082019050919050565b600082825260208201905092915050565b60006115a1826112fe565b6115ab8185611585565b93506115bb81856020860161131a565b6115c481611344565b840191505092915050565b6115d8816111da565b82525050565b6115e7816112c8565b82525050565b6000606083016000830151848203600086015261160a8282611596565b915050602083015161161f60208601826115cf565b50604083015161163260408601826115de565b508091505092915050565b600061164983836115ed565b905092915050565b6000602082019050919050565b600061166982611559565b6116738185611564565b93508360208202850161168585611575565b8060005b858110156116c157848403895281516116a2858261163d565b94506116ad83611651565b925060208a01995050600181019050611689565b50829750879550505050505092915050565b600060208201905081810360008301526116ed818461165e565b905092915050565b600060208201905061170a600083018461138e565b92915050565b6117198161125d565b82525050565b60006020820190506117346000830184611710565b92915050565b7f54686520656c656374696f6e2068617320656e6465642e000000000000000000600082015250565b6000611770601783611309565b915061177b8261173a565b602082019050919050565b6000602082019050818103600083015261179f81611763565b9050919050565b7f596f75206861766520616c726561647920766f7465642e000000000000000000600082015250565b60006117dc601783611309565b91506117e7826117a6565b602082019050919050565b6000602082019050818103600083015261180b816117cf565b9050919050565b7f596f7520617265206e6f7420656c696769626c6520746f20766f74652e000000600082015250565b6000611848601d83611309565b915061185382611812565b602082019050919050565b600060208201905081810360008301526118778161183b565b9050919050565b7f496e76616c69642063616e64696461746520696e6465782e0000000000000000600082015250565b60006118b4601883611309565b91506118bf8261187e565b602082019050919050565b600060208201905081810360008301526118e3816118a7565b9050919050565b7f4e487b7100000000000000000000000000000000000000000000000000000000600052603260045260246000fd5b7f546869732063616e64696461746520686173206265656e2072656d6f7665642e600082015250565b600061194f602083611309565b915061195a82611919565b602082019050919050565b6000602082019050818103600083015261197e81611942565b9050919050565b7f4e487b7100000000000000000000000000000000000000000000000000000000600052601160045260246000fd5b60006119bf826111da565b91506119ca836111da565b92508282019050808211156119e2576119e1611985565b5b92915050565b7f4f6e6c7920746865206f776e65722063616e20706572666f726d20746869732060008201527f616374696f6e2e00000000000000000000000000000000000000000000000000602082015250565b6000611a44602783611309565b9150611a4f826119e8565b604082019050919050565b60006020820190508181036000830152611a7381611a37565b9050919050565b7f43616e64696461746520697320616c72656164792072656d6f7665642e000000600082015250565b6000611ab0601d83611309565b9150611abb82611a7a565b602082019050919050565b60006020820190508181036000830152611adf81611aa3565b9050919050565b7f4e487b7100000000000000000000000000000000000000000000000000000000600052602260045260246000fd5b60006002820490506001821680611b2d57607f821691505b602082108103611b4057611b3f611ae6565b5b50919050565b60008190508160005260206000209050919050565b60006020601f8301049050919050565b600082821b905092915050565b600060088302611ba87fffffffffffffffffffffffffffffffffffffffffffffffffffffffffffffffff82611b6b565b611bb28683611b6b565b95508019841693508086168417925050509392505050565b6000819050919050565b6000611bef611bea611be5846111da565b611bca565b6111da565b9050919050565b6000819050919050565b611c0983611bd4565b611c1d611c1582611bf6565b848454611b78565b825550505050565b600090565b611c32611c25565b611c3d818484611c00565b505050565b5b81811015611c6157611c56600082611c2a565b600181019050611c43565b5050565b601f821115611ca657611c7781611b46565b611c8084611b5b565b81016020851015611c8f578190505b611ca3611c9b85611b5b565b830182611c42565b50505b505050565b600082821c905092915050565b6000611cc960001984600802611cab565b1980831691505092915050565b6000611ce28383611cb8565b9150826002028217905092915050565b611cfb826112fe565b67ffffffffffffffff811115611d1457611d136113e5565b5b611d1e8254611b15565b611d29828285611c65565b600060209050601f831160018114611d5c5760008415611d4a578287015190505b611d548582611cd6565b865550611dbc565b601f198416611d6a86611b46565b60005b82811015611d9257848901518255600182019150602085019450602081019050611d6d565b86831015611daf5784890151611dab601f891682611cb8565b8355505b6001600288020188555050505b505050505050565b7f5468697320766f74657220686173206e6f7420766f746564207965742e000000600082015250565b6000611dfa601d83611309565b9150611e0582611dc4565b602082019050919050565b60006020820190508181036000830152611e2981611ded565b9050919050565b7f43616e64696461746520697320616c7265616479206163746976652e00000000600082015250565b6000611e66601c83611309565b9150611e7182611e30565b602082019050919050565b60006020820190508181036000830152611e9581611e59565b905091905056fea26469706673582212201b56231bbf244eeb01f8a2254cc273fd422974422872c5b1e20eb24fd66d793a64736f6c63430008130033",
  "immutableReferences": {},
  "source": "// SPDX-License-Identifier: MIT\r\npragma solidity 0.8.19;\r\n\r\ncontract Voting {\r\n    struct Candidate {\r\n        string name;\r\n        uint voteCount;\r\n        bool isActive; // New field to track if candidate is active\r\n    }\r\n    \r\n    address public owner;\r\n    mapping(address => bool) public hasVoted;\r\n    mapping(address => bool) public eligibleVoters;\r\n    mapping(address => uint) public votes;  // Mapping to track each voter's candidate choice\r\n    Candidate[] public candidates;\r\n    bool public electionEnded;\r\n    \r\n    // Constructor to initialize candidates\r\n    constructor(string[] memory candidateNames) {\r\n        owner = msg.sender;\r\n        electionEnded = false;\r\n        for (uint i = 0; i < candidateNames.length; i++) {\r\n            candidates.push(Candidate({\r\n                name: candidateNames[i],\r\n                voteCount: 0,\r\n                isActive: true\r\n            }));\r\n        }\r\n    }\r\n    \r\n    // Modifier to restrict access to only the owner\r\n    modifier onlyOwner() {\r\n        require(msg.sender == owner, \"Only the owner can perform this action.\");\r\n        _;\r\n    }\r\n    \r\n    // Modifier to check if the election has ended\r\n    modifier electionActive() {\r\n        require(!electionEnded, \"The election has ended.\");\r\n        _;\r\n    }\r\n    \r\n    // Function to add a new candidate (only owner can add)\r\n    function addCandidate(string memory candidateName) public onlyOwner {\r\n        candidates.push(Candidate({\r\n            name: candidateName,\r\n            voteCount: 0,\r\n            isActive: true\r\n        }));\r\n    }\r\n\r\n \r\n\r\n    // New function to remove a candidate (only owner can remove)\r\n    function removeCandidate(uint candidateIndex) public onlyOwner {\r\n        require(candidateIndex < candidates.length, \"Invalid candidate index.\");\r\n        require(candidates[candidateIndex].isActive, \"Candidate is already removed.\");\r\n        candidates[candidateIndex].isActive = false;\r\n    }\r\n\r\n    function reactivateCandidate(uint candidateIndex) public onlyOwner {\r\n        require(candidateIndex < candidates.length, \"Invalid candidate index.\");\r\n        require(!candidates[candidateIndex].isActive, \"Candidate is already active.\");\r\n        candidates[candidateIndex].isActive = true;\r\n    }\r\n    \r\n    // Function to add an eligible voter (only owner can add)\r\n    function addEligibleVoter(address voter) public onlyOwner {\r\n        eligibleVoters[voter] = true;\r\n    }\r\n    \r\n    // Function to remove an eligible voter (only owner can remove)\r\n    function removeEligibleVoter(address voter) public onlyOwner {\r\n        eligibleVoters[voter] = false;\r\n    }\r\n    \r\n    // Function to end the election (only owner can end)\r\n    function endElection() public onlyOwner {\r\n        electionEnded = true;\r\n    }\r\n    \r\n    // Function to start the election (only owner can start)\r\n    function startElection() public onlyOwner {\r\n        electionEnded = false;\r\n    }\r\n    \r\n    // Modified function to vote for a candidate\r\n    function vote(uint candidateIndex) public electionActive {\r\n        require(!hasVoted[msg.sender], \"You have already voted.\");\r\n        require(eligibleVoters[msg.sender], \"You are not eligible to vote.\");\r\n        require(candidateIndex < candidates.length, \"Invalid candidate index.\");\r\n        require(candidates[candidateIndex].isActive, \"This candidate has been removed.\");\r\n        \r\n        hasVoted[msg.sender] = true;\r\n        candidates[candidateIndex].voteCount += 1;\r\n        votes[msg.sender] = candidateIndex;\r\n    }\r\n    \r\n    // Modified function to get voting results\r\n    function getResults() public view returns (Candidate[] memory) {\r\n        return candidates;\r\n    }\r\n    \r\n    // Function to check if a specific voter has voted\r\n    function hasVotedStatus(address voter) public view returns (bool) {\r\n        return hasVoted[voter];\r\n    }\r\n    \r\n    // Function to get the candidate index a voter voted for\r\n    function getVoterChoice(address voter) public view returns (uint) {\r\n        require(eligibleVoters[voter], \"You are not eligible to vote.\");\r\n        require(hasVoted[voter], \"This voter has not voted yet.\");\r\n        return votes[voter];\r\n    }\r\n}",
  "sourcePath": "C:\\Users\\HP\\Desktop\\Voting System\\contracts\\voting.sol",
  "compiler": {
    "name": "solc",
    "version": "0.8.19+commit.7dd6d404.Emscripten.clang"
  },
  "schemaVersion": "3.4.16",
  "updatedAt": "2024-10-27T13:27:41.447Z",
  "networkType": "ethereum",
  "devdoc": {
    "kind": "dev",
    "methods": {},
    "version": 1
  },
  "userdoc": {
    "kind": "user",
    "methods": {},
    "version": 1
  }
}